:100000000C942A000C9451020C947A020C94A302D2
:100010000C9489010C940E010C9447000C9460011F
:100020000C9447000C94E5000C9437010C94BC0030
:100030000C9447000C9447000C9447000C94470024
:100040000C9447000C9447000C9447000C94470014
:100050000C94470011241FBECFE5D8E0DEBFCDBF12
:1000600010E0A0E6B0E0EEECFDE002C005900D92DD
:10007000A43AB107D9F710E0A4EAB0E001C01D929C
:10008000A73BB107E1F70E94DB060C94E5060C9450
:100090000000FC018081813001F1813020F082304C
:1000A000E1F183E008958181882349F4828187709A
:1000B000806883BF848182BF89B7816046C08130F8
:1000C00009F049C082818770886883BF848182BFBC
:1000D00086818CBF89B7826038C08181882359F4BA
:1000E0008CE08FBD82818EBD848195819DBD8CBD4C
:1000F00089B784602AC0813071F58CE08FBD828120
:1001000088608EBD848195819DBD8CBD86819781DF
:100110009BBD8ABD89B7806118C08181882349F45D
:1001200083818770806885BD848184BD89B7806440
:100130000CC0813081F483818770886885BD84819B
:1001400084BD868183BD89B7806889BF8FB7806889
:100150008FBF85E0089584E008959093A90080936F
:10016000A80008959093A7008093A6000895909307
:10017000A5008093A40008951F920F920FB60F92CE
:1001800011242F933F934F935F936F937F938F939C
:100190009F93AF93BF93EF93FF93E091A800F091EB
:1001A000A900309709F00995FF91EF91BF91AF91A8
:1001B0009F918F917F916F915F914F913F912F917F
:1001C0000F900FBE0F901F9018951F920F920FB6B1
:1001D0000F9211242F933F934F935F936F937F93CD
:1001E0008F939F93AF93BF93EF93FF93E091A600FC
:1001F000F091A700309709F00995FF91EF91BF9119
:10020000AF919F918F917F916F915F914F913F91AE
:100210002F910F900FBE0F901F9018951F920F9265
:100220000FB60F9211242F933F934F935F936F93C9
:100230007F938F939F93AF93BF93EF93FF93E0913F
:10024000A400F091A500309709F00995FF91EF9176
:10025000BF91AF919F918F917F916F915F914F91DE
:100260003F912F910F900FBE0F901F9018951F92E6
:100270000F920FB60F9211242F933F934F935F93DA
:100280006F937F938F939F93AF93BF93EF93FF935E
:10029000E091A800F091A900309709F00995FF912D
:1002A000EF91BF91AF919F918F917F916F915F91EE
:1002B0004F913F912F910F900FBE0F901F90189567
:1002C0001F920F920FB60F9211242F933F934F93CB
:1002D0005F936F937F938F939F93AF93BF93EF93AE
:1002E000FF93E091A600F091A700309709F00995DF
:1002F000FF91EF91BF91AF919F918F917F916F91FE
:100300005F914F913F912F910F900FBE0F901F90D3
:1003100018951F920F920FB60F9211242F933F93AF
:100320004F935F936F937F938F939F93AF93BF93FD
:10033000EF93FF93E091A400F091A500309709F0AE
:100340000995FF91EF91BF91AF919F918F917F910F
:100350006F915F914F913F912F910F900FBE0F9032
:100360001F90189578940895F8940895FC01808161
:10037000813049F1813028F0823009F445C083E0B2
:10038000089585B78C7F85BF8181823059F0833095
:1003900018F4882381F04EC0833039F0843009F09E
:1003A00049C006C085B7816005C085B7826002C0BC
:1003B00085B7836085BF8281813011F080E0089528
:1003C0008BB7806433C085B7837F85BF81818230DE
:1003D00051F0833018F4882379F02CC0833031F049
:1003E000843041F506C085B7846005C085B7886054
:1003F00002C085B78C6085BF8281813011F081E0B9
:1004000008958BB7806812C084B78F7B84BF8181C9
:10041000833029F0843071F484B7806484BF828192
:10042000813011F082E008958BB780628BBF7894A1
:1004300085E0089584E00895FC018281E0818823AD
:1004400091F4E13041F0E13018F0E230C9F406C037
:100450008BB78F7B05C08BB78F7702C08BB78F7D33
:100460008BBF85E00895E13029F0E13028F0E230DB
:1004700039F404C081E0089580E0089582E0089591
:1004800083E008959093AF008093AE000895909319
:10049000AD008093AC0008959093AB008093AA00C8
:1004A00008951F920F920FB60F9211242F933F932E
:1004B0004F935F936F937F938F939F93AF93BF936C
:1004C000EF93FF93E091AE00F091AF00309709F009
:1004D0000995FF91EF91BF91AF919F918F917F917E
:1004E0006F915F914F913F912F910F900FBE0F90A1
:1004F0001F9018951F920F920FB60F9211242F93F1
:100500003F934F935F936F937F938F939F93AF939B
:10051000BF93EF93FF93E091AC00F091AD00309763
:1005200009F00995FF91EF91BF91AF919F918F9144
:100530007F916F915F914F913F912F910F900FBEDF
:100540000F901F9018951F920F920FB60F921124C3
:100550002F933F934F935F936F937F938F939F93CB
:10056000AF93BF93EF93FF93E091AA00F091AB009C
:10057000309709F00995FF91EF91BF91AF919F914D
:100580008F917F916F915F914F913F912F910F903C
:100590000FBE0F901F901895FC019181983010F0BC
:1005A00081E008958081843008F0C7C08130C1F1B6
:1005B000813038F0823009F462C0833009F0BDC068
:1005C0008DC08281813079F48AB321E030E002C0AD
:1005D000220F331F9A95E2F7822B8ABB8BB32095AB
:1005E00028232BBBA8C0882309F0A9C08AB321E027
:1005F00030E002C0220F331F9A95E2F7422F409558
:1006000084238ABB8481813039F48BB3282B2BBBA4
:1006100089B3482349BB8FC08BB348234BBB8BC0E6
:100620008281813079F487B321E030E002C0220F6B
:10063000331F9A95E2F7822B87BB88B32095282336
:1006400028BB79C0882309F07AC087B321E030E065
:1006500002C0220F331F9A95E2F7422F4095842360
:1006600087BB8481813039F488B3282B28BB86B3BB
:10067000482346BB60C088B3482348BB5CC0828126
:10068000813079F484B321E030E002C0220F331FBF
:100690009A95E2F7822B84BB85B32095282325BB4E
:1006A0004AC0882309F04BC084B321E030E002C087
:1006B000220F331F9A95E2F7422F4095842384BB83
:1006C0008481813039F485B3282B25BB83B348233B
:1006D00043BB31C085B3482345BB2DC082818130E7
:1006E00079F481B321E030E002C0220F331F9A95E4
:1006F000E2F7822B81BB82B32095282322BB1BC04B
:100700008823E9F481B321E030E002C0220F331FD7
:100710009A95E2F7422F4095842381BB84818130F2
:1007200039F482B3282B22BB80B3482340BB03C0DB
:1007300082B3482342BB80E0089582E0089583E0BD
:100740000895DC01FB01108211963C91119738301D
:1007500010F081E008952C91243038F5213049F0D3
:10076000213028F0223081F02330F9F40FC089B312
:100770000EC086B390E002C0959587953A95E2F752
:1007800080FF10C020830FC083B301C080B390E00E
:1007900002C0959587953A95E2F780FF03C081E006
:1007A000808301C0108280E0089582E00895FC01FA
:1007B0003181383010F081E008958081843008F074
:1007C0006FC0813009F1813030F08230B1F1833077
:1007D00009F066C04BC0613059F42BB381E090E062
:1007E00002C0880F991F3A95E2F7282B2BBB56C001
:1007F0002BB381E090E002C0880F991F3A95E2F791
:10080000809582238BBB4AC0613059F428B381E0C4
:1008100090E002C0880F991F3A95E2F7282B28BB79
:100820003DC028B381E090E002C0880F991F3A953F
:10083000E2F78095822388BB31C0613059F425B33B
:1008400081E090E002C0880F991F3A95E2F7282BCB
:1008500025BB24C025B381E090E002C0880F991F1A
:100860003A95E2F78095822385BB18C0613059F430
:1008700022B381E090E002C0880F991F3A95E2F719
:10088000282B22BB0BC022B381E090E002C0880F6E
:10089000991F3A95E2F78095822382BB80E0089504
:1008A00082E00895FC013181383010F081E0089534
:1008B0009081943008F03BC08281813011F083E058
:1008C0000895913091F0913028F09230C9F0933032
:1008D00071F521C02BB381E090E002C0880F991F11
:1008E0003A95E2F728272BBB20C028B381E090E09F
:1008F00002C0880F991F3A95E2F7282728BB15C038
:1009000025B381E090E002C0880F991F3A95E2F785
:10091000282725BB0AC022B381E090E002C0880FDF
:10092000991F3A95E2F7282722BB80E0089582E0DC
:100930000895982F8430C0F4862F81508E3F10F494
:1009400083E00895913049F0913028F0923039F0E9
:10095000933051F406C06ABB05C067BB03C064BBDB
:1009600001C061BB80E0089582E008950F931F935A
:10097000DF93CF930F92CDB7DEB78C011982BE0102
:100980006F5F7F4F0E94A103882329F4C80169810A
:100990000E94D703811181E00F90CF91DF911F91C9
:1009A0000F91089560E00E94D703811181E00895BE
:1009B00061E00E94D703811181E008950E945204F2
:1009C000811181E0089583E790E00E94CC028823A2
:1009D000C1F589E790E00E94CC028823A1F58FE75A
:1009E00090E00E94CC02882381F585E890E00E9487
:1009F000CC02882331F58BE890E00E94CC0288235A
:100A000011F581E990E00E94CC028823F1F483E79C
:100A100090E00E94D20489E790E00E94D2048FE720
:100A200090E00E94D20485E890E00E94D2048BE816
:100A300090E00E94D20481E990E00E94D20480E01C
:100A4000089582E0089583E0089584E0089587E999
:100A500090E00E94CC02882311F081E0089580E7A5
:100A600090E00E94B601853011F480E0089582E0A4
:100A700008958091B0009091B10001969093B100DB
:100A80008093B000089581E08093B200089581E0E2
:100A90008093B3000895DF93CF930F92CDB7DEB765
:100AA0008DE990E00E94CC028823E1F080E06FEFB6
:100AB0000E9499048823B1F487E990E0BE016F5F3A
:100AC0007F4F0E94A103882369F083E790E069814A
:100AD0000E94D703882331F083E790E00E945204FC
:100AE000882311F40E94E0060F90CF91DF910895C2
:100AF00081E08093B4001092B5001092B60089E7AF
:100B000090E00E94D204882389F58FE790E00E944C
:100B1000D204882359F585E890E00E94D204882306
:100B200029F58BE890E00E94D2048823F9F4109212
:100B3000B1001092B0000CC083E790E00E94D8048E
:100B40008823A1F481E990E00E94D804882371F4FD
:100B50008091B0009091B100459770F38091B300FF
:100B6000882329F01092B30080E0089584E008956E
:100B70008091B400882359F08091B500882339F41E
:100B80008091B600882319F41092B30008958091E3
:100B9000B400882309F043C08091B500882321F474
:100BA0008091B6008823D9F183E790E00E94D204B7
:100BB0008823C9F58FE790E00E94D204882399F535
:100BC00085E890E00E94D204882369F581E990E0ED
:100BD0000E94D204882339F51092B1001092B0001F
:100BE00010C08091B200882371F089E790E00E94E4
:100BF000DE048823C1F48BE890E00E94DE048823A1
:100C000091F41092B2008091B0009091B10045979C
:100C100040F30E947805882311F084E00895109233
:100C2000B30080E0089588E008951092B40081E058
:100C30008093B5001092B60083E790E00E94D20442
:100C40008823B9F58FE790E00E94D204882389F5C4
:100C50008BE890E00E94D204882359F581E990E066
:100C60000E94D204882329F51092B1001092B0009E
:100C700010C085E890E00E94D8048823D1F48091C8
:100C8000B200882341F089E790E00E94DE048823C7
:100C900081F41092B2008091B0009091B10045971C
:100CA00040F38091B300882329F00E94B80580E0CA
:100CB000089585E008951092B4001092B50081E087
:100CC0008093B60083E790E00E94D2048823C9F5A0
:100CD00089E790E00E94D204882399F58BE890E0A0
:100CE0000E94D204882369F581E990E00E94D20431
:100CF000882339F51092B1001092B0000CC08FE734
:100D000090E00E94D8048823E1F485E890E00E94F6
:100D1000D8048823B1F48091B0009091B100459738
:100D200070F38091B300882371F00E94B8050BC066
:100D30000E947805882311F084E008950E9415062A
:100D4000811185E008950E9415068823D1F7F0CF20
:100D50000E945B06811187E0089589E395E00E9477
:100D6000AD0083E495E00E94B70087E495E00E941F
:100D700042020E94E304882311F081E008950E945A
:100D80002705882311F082E0089580E690E00E9414
:100D90004900853071F488E690E00E944900853072
:100DA00041F41092B1001092B0001092B20080E0B5
:100DB000089583E008950E94AD060E94A806FDCF25
:0E0DC00081E090E0F8940C94E506F894FFCFE3
:100DCE00000105000000F400020100070000F00021
:100DDE0000030100000100000000010100000000FE
:100DEE0002010000000100010000000101010000ED
:100DFE0000010201000000030200000101000901D0
:040E0E0000000000E0
:00000001FF
